:1000000049C0000064C0000062C0000060C0000081
:100010005EC000005CC000005AC0000058C0000074
:1000200056C0000054C0000052C0000050C0000084
:100030004EC000004CC000004AC0000048C0000094
:1000400004C4000044C00000F7C0000040C000002D
:100050003EC000003CC000003AC0000038C00000B4
:1000600036C0000034C0000032C0000030C00000C4
:100070002EC000002CC000002AC0000028C00000D4
:1000800026C0000024C0000022C0000020C00000E4
:100090001EC0000011241FBECFEFD0E1DEBFCDBFD8
:1000A00011E0A0E0B1E0E2EBFCE000E00BBF02C039
:1000B00007900D92A231B107D9F711E0A2E1B1E0AA
:1000C00001C01D92AA38B107E1F7DED1F0C598CF83
:1000D000FF920F931F93CF93DF93CDB7DEB72C978B
:1000E0000FB6F894DEBF0FBECDBF1091ED00107FAC
:1000F0001092ED008091EE0085FF88C01092EE0016
:100100008091F00090E023E0959587952A95E1F79E
:10011000AA2797FDA095BA2F49815A816B817C81CE
:10012000842B952BA62BB72B89839A83AB83BC8317
:100130004091F10020E2429FA0011124662757FD63
:100140006095762F482B592B6A2B7B2B49835A833A
:100150006B837C838091F20090E0982F8827AA27F8
:1001600097FDA095BA2F842B952BA62BB72B8983AF
:100170009A83AB83BC834091F30050E0542F442713
:10018000662757FD6095762F482B592B6A2B7B2BC2
:1001900049835A836B837C831D821E821F8218864B
:1001A00019861A861B861C86E8E3F0E02091FA0087
:1001B00030E040E050E060E070E080E090E00E2F42
:1001C000DAD3FD80F22A0E81032BBF81B42BA885E0
:1001D000A52B4985462B3A85372B2B85282B8C85DB
:1001E000892BFD820E83BF83A88749873A872B8797
:1001F0008C873897E83F8FEFF807C1F6BE016F5F35
:100200007F4F84E191E027D22C9801C02C9A88E995
:100210008093EF008091ED00807F812B8093ED0033
:100220002C960FB6F894DEBF0FBECDBFDF91CF91F5
:100230001F910F91FF9008951F920F920FB60F928A
:1002400011248F939F938091ED00807F8093120102
:100250001092ED008091EE0085FF25C08091FA009C
:10026000809313018091FA00809313018091FA002A
:10027000809313018091FA00809313018091FA001A
:10028000809313018091FA00809313018091FA000A
:10029000809313018091FA008093130180FF02C0C4
:1002A0002D9801C02D9A1092EE0088E88093EF00FF
:1002B0008091ED00807F90911201892B8093ED0059
:1002C0009F918F910F900FBE0F901F90189581E016
:1002D0008093D8008091D90082FDFCCF86E0809386
:1002E000E20084E08093E30083E18093E4001092D5
:1002F000ED0088E98093EF001092EE001092F30079
:100300001092F2001092F1001092F0001092F7009B
:100310001092F6001092F5001092F40080E18093A4
:10032000ED001092EF001092EE001092F300109288
:10033000F2001092F1001092F0001092F70010926B
:10034000F6001092F5001092F40022E0822F8295C0
:10035000807F8093ED001092EF001092EE001092DB
:10036000F3001092F2001092F1001092F00010923F
:10037000F7001092F6001092F5001092F40088E059
:1003800090E01092FA0001970097D9F72F5F2F3075
:10039000E9F61092DF008091D80082608093D80047
:1003A00090EA8091D90082FD03C09093DB00F9CFE1
:1003B0000895259A2D9A269A2E9A249A2C9A089571
:1003C000EF92FF920F931F93CF93DF93CDB7DEB7DA
:1003D0002D970FB6F894DEBF0FBECDBF182FBE010C
:1003E0006F5F7F4F84E191E060D1882361F188E302
:1003F000E82EF12C2D813E814F81588569857A85C3
:100400008B859C850E2DD2D22D87BE01635F7F4FD9
:100410008CE291E020D188E0E81AF10888EFE81634
:100420008FEFF80639F78DE08D87BE01635F7F4F50
:100430008CE291E010D18AE08D87BE01635F7F4F2F
:100440008CE291E008D1113059F030F0123061F4B3
:100450002D9A2E9A2C9805C02D9881E08FD104C03A
:100460002D9A80E08BD1139A88EE93E091D12D964E
:100470000FB6F894DEBF0FBECDBFDF91CF911F91B5
:100480000F91FF90EF900895EF92FF920F931F93BB
:10049000CF93DF93CDB7DEB72B970FB6F894DEBFBF
:1004A0000FBECDBF80E88093610081E08093610042
:1004B00061E08FE0A6D02093340130933501409362
:1004C000360150933701609338017093390180935E
:1004D0003A0190933B0161E08FE093D020932C018F
:1004E00030932D0140932E0150932F0160933001E2
:1004F00070933101809332019093330161E08FE07A
:1005000080D02093240130932501409326015093FD
:100510002701609328017093290180932A01909309
:100520002B0161E08FE06DD020931C0130931D0101
:1005300040931E0150931F0160932001709321018D
:1005400080932201909323016CE08FE05AD0209396
:1005500014013093150140931601509317016093D5
:1005600018017093190180931A0190931B0121DFE8
:10057000AEDE81E090E0CED182E090E0CBD1BED083
:1005800060EE71E080E0E2D06CE474E081E0DED007
:1005900066E374E082E0DAD066E774E083E0D6D008
:1005A00060E674E084E0D2D068E670E085E0CED00A
:1005B0008BE0E6E0F1E0DE01119601900D928A9564
:1005C000E1F78E010F5F1F4F7E018BE0E80EF11CFB
:1005D000B8018CE291E03FD00F5F1F4F0E151F0551
:1005E000B9F7E3D080E090E02B960FB6F894DEBF29
:1005F0000FBECDBFDF91CF911F910F91FF90EF9074
:100600000895CF93DF93CDB7DEB72A970FB6F8944E
:10061000DEBF0FBECDBF582F462F70E090E04A8757
:100620005987F4D1292F90913C0131E0390F309353
:100630003C018D832E83682F722F20E030E04A85A5
:10064000598580E02A960FB6F894DEBF0FBECDBF65
:10065000DF91CF9108951F93CF93DF93EC01FB01BE
:100660002881822F90E001966B8170E071D1182F64
:1006700089818117A9F09E819F5F9E834A81429F55
:10068000C0011124880F991F880F991FAC81BD816B
:1006900050E0BF018A0F9B1FFAD2188381E001C08E
:1006A00080E0DF91CF911F910895CF93DF93EC010C
:1006B000CB01298148813E81421302C03323D1F00E
:1006C00031503E83EA814E2F50E0E29FF001112429
:1006D000EE0FFF1FEE0FFF1F6C817D816E0F7F1FDE
:1006E000D6D2898190E001966B8170E031D1898307
:1006F00081E001C080E0DF91CF910895CF93DF9337
:10070000CDB7DEB727970FB6F894DEBF0FBECDBFCB
:1007100080E491E027E0DC011197FE013196322F51
:1007200001900D923A95E1F7FC0110820796F1E0F5
:1007300086389F0781F781D0789427960FB6F89472
:10074000DEBF0FBECDBFDF91CF9108958A30A8F4F0
:1007500097E0899FF0011124E15CFE4F91E09183C5
:1007600080837383628381E090E095838483168223
:1007700080913E018F5F80933E010895E0913D019D
:1007800097E0E99FF0011124E15CFE4F8683089514
:10079000E0913D0127E0E29FF0011124E15CFE4F72
:1007A0009583848382E081830895C7E0D1E08091BE
:1007B00085018823E1F38091850181508093850133
:1007C00010923D0180913D0190913E01891778F78B
:1007D00090E0C89FF001C99FF00D1124E15CFE4F2D
:1007E0004181413039F02481358121153105A1F451
:1007F000423091F4C89FD001C99FB00D1124A15C73
:10080000BE4F1196DC9311971296ED91FC911397C0
:1008100016968C9109950BC0C89FF001C99FF00DE9
:100820001124E15CFE4F21503109358324838091EE
:100830003D018F5F80933D01C5CF82E080936E00C4
:100840008BE084BD8DE787BD08951F920F920FB690
:100850000F9211248F93809185018F5F8093850182
:100860008F910F900FBE0F901F901895CF93DF932D
:100870001F92CDB7DEB78091C00087FF09C080917D
:10088000C6008983BE016F5F7F4F84E391E0E3DEA2
:100890000F90DF91CF910895CF93DF931F92CDB743
:1008A000DEB7BE016F5F7F4F8CE291E0FEDE8823F2
:1008B00019F089818093C6000F90DF91CF91089540
:1008C000CF93DF931F92CDB7DEB78091C80087FF2B
:1008D00009C08091CE008983BE016F5F7F4F84E2A3
:1008E00091E0B9DE0F90DF91CF910895CF93DF9320
:1008F0001F92CDB7DEB7BE016F5F7F4F8CE191E0F5
:10090000D4DE882319F089818093CE000F90DF9187
:10091000CF9108958130910519F0029769F00895FB
:1009200088E18093C1001092C50088E08093C400E4
:1009300086E08093C200089588E18093C9001092F8
:10094000CD0088E08093CC0086E08093CA000895B3
:1009500097FB072E16F4009406D077FD08D042D0FE
:1009600007FC05D03EF4909581959F4F08957095B2
:1009700061957F4F08950F93083090F0982F872F3F
:10098000762F652F542F432F322F22270850F4CF74
:10099000220F331F441F551F661F771F881F991F83
:1009A0000A95B2F70F91089597FB10F81694000876
:1009B0000F93083098F00850232F342F452F562FCF
:1009C000672F782F892F902DF4CF059497958795D1
:1009D0007795679557954795379527950A95AAF77F
:1009E0000F910895AA1BBB1B51E107C0AA1FBB1F93
:1009F000A617B70710F0A61BB70B881F991F5A95AB
:100A0000A9F780959095BC01CD0108950F931F9390
:100A1000CF93DF93869F8001879F100D969F100DC7
:100A20001124C8010DD0EC01009721F0A80160E06D
:100A300070E036D1CE01DF91CF911F910F910895D3
:100A4000CF93DF938230910510F482E090E0E09143
:100A50008801F091890120E030E0A0E0B0E030971B
:100A600039F14081518148175907B8F048175907A3
:100A700071F482819381109729F013969C938E9341
:100A800012972CC0909389018093880127C021156B
:100A9000310531F04217530718F0A901DB0101C0FD
:100AA000EF019A01BD01DF010280F381E02DD7CF74
:100AB00021153105F9F0281B390B2430310580F45C
:100AC0008A819B816115710521F0FB0193838283EB
:100AD00004C09093890180938801FE01329644C03E
:100AE000FE01E20FF31F8193919322503109398364
:100AF00028833AC02091860130918701232B41F44D
:100B000020910201309103013093870120938601E7
:100B100020910001309101012115310541F42DB7DB
:100B20003EB74091040150910501241B350BE09123
:100B30008601F0918701E217F307A0F42E1B3F0B0B
:100B40002817390778F0AC014E5F5F4F241735073F
:100B500048F04E0F5F1F50938701409386018193A9
:100B6000919302C0E0E0F0E0CF01DF91CF910895D2
:100B7000CF93DF93009709F487C0FC01329713826B
:100B80001282C0918801D0918901209781F420813F
:100B90003181280F391F809186019091870182173A
:100BA000930779F5F0938701E09386016DC0DE012C
:100BB00020E030E0AE17BF0750F412964D915C91E3
:100BC00013979D014115510509F1DA01F3CFB38364
:100BD000A28340815181840F951F8A179B0771F46E
:100BE0008D919C911197840F951F0296918380831C
:100BF00012968D919C9113979383828321153105D1
:100C000029F4F0938901E09388013EC0D90113963D
:100C1000FC93EE9312974D915D91A40FB51FEA17C7
:100C2000FB0779F480819181840F951F0296D90189
:100C300011969C938E938281938113969C938E93AD
:100C40001297E0E0F0E08A819B81009719F0FE01A5
:100C5000EC01F9CFCE01029628813981820F931FD2
:100C600020918601309187012817390769F4309760
:100C700029F4109289011092880102C01382128215
:100C8000D0938701C0938601DF91CF910895FB0136
:100C9000DC0102C001900D9241505040D8F70895F8
:100CA000DC0101C06D9341505040E0F70895F89485
:020CB000FFCF74
:100CB20000008A012000426F6F74656476320D0A6B
:020CC200000030
:00000001FF
